{
  "contractName": "StoragePlatform",
  "abi": [
    {
      "inputs": [
        {
          "internalType": "uint256",
          "name": "",
          "type": "uint256"
        }
      ],
      "name": "files",
      "outputs": [
        {
          "internalType": "string",
          "name": "cid",
          "type": "string"
        },
        {
          "internalType": "string",
          "name": "fileName",
          "type": "string"
        },
        {
          "internalType": "uint256",
          "name": "size",
          "type": "uint256"
        },
        {
          "internalType": "address",
          "name": "owner",
          "type": "address"
        },
        {
          "internalType": "string",
          "name": "encryptedAESKey",
          "type": "string"
        },
        {
          "internalType": "string",
          "name": "iv",
          "type": "string"
        }
      ],
      "stateMutability": "view",
      "type": "function",
      "constant": true
    },
    {
      "inputs": [
        {
          "internalType": "address",
          "name": "",
          "type": "address"
        }
      ],
      "name": "providerBalances",
      "outputs": [
        {
          "internalType": "uint256",
          "name": "",
          "type": "uint256"
        }
      ],
      "stateMutability": "view",
      "type": "function",
      "constant": true
    },
    {
      "inputs": [
        {
          "internalType": "uint256",
          "name": "",
          "type": "uint256"
        }
      ],
      "name": "storageOffers",
      "outputs": [
        {
          "internalType": "address",
          "name": "provider",
          "type": "address"
        },
        {
          "internalType": "uint256",
          "name": "capacity",
          "type": "uint256"
        },
        {
          "internalType": "uint256",
          "name": "pricePerMBPerDay",
          "type": "uint256"
        },
        {
          "internalType": "bool",
          "name": "isActive",
          "type": "bool"
        },
        {
          "internalType": "bool",
          "name": "isCancelled",
          "type": "bool"
        },
        {
          "internalType": "uint256",
          "name": "purchaseTimestamp",
          "type": "uint256"
        },
        {
          "internalType": "address",
          "name": "buyer",
          "type": "address"
        }
      ],
      "stateMutability": "view",
      "type": "function",
      "constant": true
    },
    {
      "inputs": [
        {
          "internalType": "address",
          "name": "",
          "type": "address"
        },
        {
          "internalType": "uint256",
          "name": "",
          "type": "uint256"
        }
      ],
      "name": "userPurchasedOffers",
      "outputs": [
        {
          "internalType": "uint256",
          "name": "",
          "type": "uint256"
        }
      ],
      "stateMutability": "view",
      "type": "function",
      "constant": true
    },
    {
      "inputs": [
        {
          "internalType": "uint256",
          "name": "capacity",
          "type": "uint256"
        },
        {
          "internalType": "uint256",
          "name": "pricePerMBPerDay",
          "type": "uint256"
        }
      ],
      "name": "registerProvider",
      "outputs": [],
      "stateMutability": "nonpayable",
      "type": "function"
    },
    {
      "inputs": [
        {
          "internalType": "uint256",
          "name": "offerIndex",
          "type": "uint256"
        }
      ],
      "name": "purchaseStorage",
      "outputs": [],
      "stateMutability": "payable",
      "type": "function",
      "payable": true
    },
    {
      "inputs": [
        {
          "internalType": "uint256",
          "name": "offerIndex",
          "type": "uint256"
        }
      ],
      "name": "cancelOffer",
      "outputs": [],
      "stateMutability": "nonpayable",
      "type": "function"
    },
    {
      "inputs": [
        {
          "internalType": "uint256",
          "name": "offerIndex",
          "type": "uint256"
        }
      ],
      "name": "returnStorage",
      "outputs": [],
      "stateMutability": "nonpayable",
      "type": "function"
    },
    {
      "inputs": [
        {
          "internalType": "string",
          "name": "cid",
          "type": "string"
        },
        {
          "internalType": "string",
          "name": "fileName",
          "type": "string"
        },
        {
          "internalType": "uint256",
          "name": "size",
          "type": "uint256"
        },
        {
          "internalType": "string",
          "name": "encryptedAESKey",
          "type": "string"
        },
        {
          "internalType": "string",
          "name": "iv",
          "type": "string"
        }
      ],
      "name": "uploadFile",
      "outputs": [],
      "stateMutability": "nonpayable",
      "type": "function"
    },
    {
      "inputs": [
        {
          "internalType": "address",
          "name": "user",
          "type": "address"
        }
      ],
      "name": "getUserFiles",
      "outputs": [
        {
          "components": [
            {
              "internalType": "string",
              "name": "cid",
              "type": "string"
            },
            {
              "internalType": "string",
              "name": "fileName",
              "type": "string"
            },
            {
              "internalType": "uint256",
              "name": "size",
              "type": "uint256"
            },
            {
              "internalType": "address",
              "name": "owner",
              "type": "address"
            },
            {
              "internalType": "string",
              "name": "encryptedAESKey",
              "type": "string"
            },
            {
              "internalType": "string",
              "name": "iv",
              "type": "string"
            }
          ],
          "internalType": "struct StoragePlatform.File[]",
          "name": "",
          "type": "tuple[]"
        }
      ],
      "stateMutability": "view",
      "type": "function",
      "constant": true
    },
    {
      "inputs": [
        {
          "internalType": "string",
          "name": "fileHash",
          "type": "string"
        }
      ],
      "name": "getFileData",
      "outputs": [
        {
          "internalType": "string",
          "name": "encryptedAESKey",
          "type": "string"
        },
        {
          "internalType": "string",
          "name": "iv",
          "type": "string"
        },
        {
          "internalType": "string",
          "name": "fileName",
          "type": "string"
        }
      ],
      "stateMutability": "view",
      "type": "function",
      "constant": true
    },
    {
      "inputs": [],
      "name": "getStorageOffersCount",
      "outputs": [
        {
          "internalType": "uint256",
          "name": "",
          "type": "uint256"
        }
      ],
      "stateMutability": "view",
      "type": "function",
      "constant": true
    },
    {
      "inputs": [
        {
          "internalType": "address",
          "name": "user",
          "type": "address"
        }
      ],
      "name": "getUserPurchasedOffers",
      "outputs": [
        {
          "internalType": "uint256[]",
          "name": "",
          "type": "uint256[]"
        }
      ],
      "stateMutability": "view",
      "type": "function",
      "constant": true
    },
    {
      "inputs": [],
      "name": "withdrawEarnings",
      "outputs": [],
      "stateMutability": "nonpayable",
      "type": "function"
    }
  ],
  "bytecode": "0x608060405234801561001057600080fd5b50612e35806100206000396000f3fe6080604052600436106100dd5760003560e01c8063b51efc6f1161007f578063be515cae11610059578063be515cae146102cb578063ef706adf14610308578063f28f35c414610331578063f4c714b41461035a576100dd565b8063b51efc6f14610248578063b73c6ce914610271578063b8f7403b14610288576100dd565b806353c08baa116100bb57806353c08baa1461018557806357c118a7146101b057806378998bbf146101ed57806381abc1b91461022c576100dd565b80631fc37922146100e257806328ac7f2c1461011f5780633edc281c1461015c575b600080fd5b3480156100ee57600080fd5b5061010960048036038101906101049190611e61565b61039c565b6040516101169190612782565b60405180910390f35b34801561012b57600080fd5b5061014660048036038101906101419190611e61565b61090c565b6040516101539190612a0f565b60405180910390f35b34801561016857600080fd5b50610183600480360381019061017e9190611fde565b610924565b005b34801561019157600080fd5b5061019a610d20565b6040516101a79190612a0f565b60405180910390f35b3480156101bc57600080fd5b506101d760048036038101906101d29190611e61565b610d2c565b6040516101e491906127a4565b60405180910390f35b3480156101f957600080fd5b50610214600480360381019061020f9190611ec6565b610dc3565b604051610223939291906127c6565b60405180910390f35b61024660048036038101906102419190611fde565b61115d565b005b34801561025457600080fd5b5061026f600480360381019061026a9190611f07565b611435565b005b34801561027d57600080fd5b50610286611571565b005b34801561029457600080fd5b506102af60048036038101906102aa9190611fde565b611687565b6040516102c29796959493929190612713565b60405180910390f35b3480156102d757600080fd5b506102f260048036038101906102ed9190611e8a565b611733565b6040516102ff9190612a0f565b60405180910390f35b34801561031457600080fd5b5061032f600480360381019061032a9190611fde565b611764565b005b34801561033d57600080fd5b5061035860048036038101906103539190612007565b6118d0565b005b34801561036657600080fd5b50610381600480360381019061037c9190611fde565b611a54565b60405161039396959493929190612812565b60405180910390f35b60606000805b600180549050811015610470578373ffffffffffffffffffffffffffffffffffffffff1660018281548110610400577f4e487b7100000000000000000000000000000000000000000000000000000000600052603260045260246000fd5b906000526020600020906006020160030160009054906101000a900473ffffffffffffffffffffffffffffffffffffffff1673ffffffffffffffffffffffffffffffffffffffff16141561045d57818061045990612cea565b9250505b808061046890612cea565b9150506103a2565b5060008167ffffffffffffffff8111156104b3577f4e487b7100000000000000000000000000000000000000000000000000000000600052604160045260246000fd5b6040519080825280602002602001820160405280156104ec57816020015b6104d9611ce0565b8152602001906001900390816104d15790505b5090506000805b600180549050811015610900578573ffffffffffffffffffffffffffffffffffffffff1660018281548110610551577f4e487b7100000000000000000000000000000000000000000000000000000000600052603260045260246000fd5b906000526020600020906006020160030160009054906101000a900473ffffffffffffffffffffffffffffffffffffffff1673ffffffffffffffffffffffffffffffffffffffff1614156108ed57600181815481106105d9577f4e487b7100000000000000000000000000000000000000000000000000000000600052603260045260246000fd5b90600052602060002090600602016040518060c001604052908160008201805461060290612cb8565b80601f016020809104026020016040519081016040528092919081815260200182805461062e90612cb8565b801561067b5780601f106106505761010080835404028352916020019161067b565b820191906000526020600020905b81548152906001019060200180831161065e57829003601f168201915b5050505050815260200160018201805461069490612cb8565b80601f01602080910402602001604051908101604052809291908181526020018280546106c090612cb8565b801561070d5780601f106106e25761010080835404028352916020019161070d565b820191906000526020600020905b8154815290600101906020018083116106f057829003601f168201915b50505050508152602001600282015481526020016003820160009054906101000a900473ffffffffffffffffffffffffffffffffffffffff1673ffffffffffffffffffffffffffffffffffffffff1673ffffffffffffffffffffffffffffffffffffffff16815260200160048201805461078690612cb8565b80601f01602080910402602001604051908101604052809291908181526020018280546107b290612cb8565b80156107ff5780601f106107d4576101008083540402835291602001916107ff565b820191906000526020600020905b8154815290600101906020018083116107e257829003601f168201915b5050505050815260200160058201805461081890612cb8565b80601f016020809104026020016040519081016040528092919081815260200182805461084490612cb8565b80156108915780601f1061086657610100808354040283529160200191610891565b820191906000526020600020905b81548152906001019060200180831161087457829003601f168201915b5050505050815250508383815181106108d3577f4e487b7100000000000000000000000000000000000000000000000000000000600052603260045260246000fd5b602002602001018190525081806108e990612cea565b9250505b80806108f890612cea565b9150506104f3565b50819350505050919050565b60026020528060005260406000206000915090505481565b600080828154811061095f577f4e487b7100000000000000000000000000000000000000000000000000000000600052603260045260246000fd5b906000526020600020906006020190508060000160009054906101000a900473ffffffffffffffffffffffffffffffffffffffff1673ffffffffffffffffffffffffffffffffffffffff163373ffffffffffffffffffffffffffffffffffffffff1614610a01576040517f08c379a00000000000000000000000000000000000000000000000000000000081526004016109f89061294f565b60405180910390fd5b8060030160009054906101000a900460ff1615610a53576040517f08c379a0000000000000000000000000000000000000000000000000000000008152600401610a4a906128af565b60405180910390fd5b600073ffffffffffffffffffffffffffffffffffffffff168160050160009054906101000a900473ffffffffffffffffffffffffffffffffffffffff1673ffffffffffffffffffffffffffffffffffffffff161415610ae7576040517f08c379a0000000000000000000000000000000000000000000000000000000008152600401610ade9061298f565b60405180910390fd5b620151808160040154610afa9190612b4a565b421115610b3c576040517f08c379a0000000000000000000000000000000000000000000000000000000008152600401610b33906128ef565b60405180910390fd5b600081600101548260020154610b529190612ba0565b905080600260003373ffffffffffffffffffffffffffffffffffffffff1673ffffffffffffffffffffffffffffffffffffffff168152602001908152602001600020541015610bd6576040517f08c379a0000000000000000000000000000000000000000000000000000000008152600401610bcd9061296f565b60405180910390fd5b60008260050160009054906101000a900473ffffffffffffffffffffffffffffffffffffffff16905081600260003373ffffffffffffffffffffffffffffffffffffffff1673ffffffffffffffffffffffffffffffffffffffff1681526020019081526020016000206000828254610c4e9190612bfa565b925050819055508073ffffffffffffffffffffffffffffffffffffffff166108fc839081150290604051600060405180830381858888f19350505050158015610c9b573d6000803e3d6000fd5b5060018360030160016101000a81548160ff02191690831515021790555060008360030160006101000a81548160ff02191690831515021790555060008360050160006101000a81548173ffffffffffffffffffffffffffffffffffffffff021916908373ffffffffffffffffffffffffffffffffffffffff16021790555050505050565b60008080549050905090565b6060600360008373ffffffffffffffffffffffffffffffffffffffff1673ffffffffffffffffffffffffffffffffffffffff168152602001908152602001600020805480602002602001604051908101604052809291908181526020018280548015610db757602002820191906000526020600020905b815481526020019060010190808311610da3575b50505050509050919050565b606080606060005b60018054905081101561111a5784604051602001610de991906126e5565b6040516020818303038152906040528051906020012060018281548110610e39577f4e487b7100000000000000000000000000000000000000000000000000000000600052603260045260246000fd5b9060005260206000209060060201600001604051602001610e5a91906126fc565b6040516020818303038152906040528051906020012014156111075760018181548110610eb0577f4e487b7100000000000000000000000000000000000000000000000000000000600052603260045260246000fd5b906000526020600020906006020160040160018281548110610efb577f4e487b7100000000000000000000000000000000000000000000000000000000600052603260045260246000fd5b906000526020600020906006020160050160018381548110610f46577f4e487b7100000000000000000000000000000000000000000000000000000000600052603260045260246000fd5b9060005260206000209060060201600101828054610f6390612cb8565b80601f0160208091040260200160405190810160405280929190818152602001828054610f8f90612cb8565b8015610fdc5780601f10610fb157610100808354040283529160200191610fdc565b820191906000526020600020905b815481529060010190602001808311610fbf57829003601f168201915b50505050509250818054610fef90612cb8565b80601f016020809104026020016040519081016040528092919081815260200182805461101b90612cb8565b80156110685780601f1061103d57610100808354040283529160200191611068565b820191906000526020600020905b81548152906001019060200180831161104b57829003601f168201915b5050505050915080805461107b90612cb8565b80601f01602080910402602001604051908101604052809291908181526020018280546110a790612cb8565b80156110f45780601f106110c9576101008083540402835291602001916110f4565b820191906000526020600020905b8154815290600101906020018083116110d757829003601f168201915b5050505050905093509350935050611156565b808061111290612cea565b915050610dcb565b506040517f08c379a000000000000000000000000000000000000000000000000000000000815260040161114d906129af565b60405180910390fd5b9193909250565b6000808281548110611198577f4e487b7100000000000000000000000000000000000000000000000000000000600052603260045260246000fd5b906000526020600020906006020190508060030160009054906101000a900460ff166111f9576040517f08c379a00000000000000000000000000000000000000000000000000000000081526004016111f0906129ef565b60405180910390fd5b8060000160009054906101000a900473ffffffffffffffffffffffffffffffffffffffff1673ffffffffffffffffffffffffffffffffffffffff163373ffffffffffffffffffffffffffffffffffffffff16141561128c576040517f08c379a00000000000000000000000000000000000000000000000000000000081526004016112839061292f565b60405180910390fd5b6000816001015482600201546112a29190612ba0565b9050803410156112e7576040517f08c379a00000000000000000000000000000000000000000000000000000000081526004016112de9061290f565b60405180910390fd5b34600260008460000160009054906101000a900473ffffffffffffffffffffffffffffffffffffffff1673ffffffffffffffffffffffffffffffffffffffff1673ffffffffffffffffffffffffffffffffffffffff168152602001908152602001600020600082825461135a9190612b4a565b92505081905550600360003373ffffffffffffffffffffffffffffffffffffffff1673ffffffffffffffffffffffffffffffffffffffff16815260200190815260200160002083908060018154018082558091505060019003906000526020600020016000909190919091505560008260030160006101000a81548160ff021916908315150217905550428260040181905550338260050160006101000a81548173ffffffffffffffffffffffffffffffffffffffff021916908373ffffffffffffffffffffffffffffffffffffffff160217905550505050565b60016040518060c001604052808781526020018681526020018581526020013373ffffffffffffffffffffffffffffffffffffffff16815260200184815260200183815250908060018154018082558091505060019003906000526020600020906006020160009091909190915060008201518160000190805190602001906114bf929190611d2c565b5060208201518160010190805190602001906114dc929190611d2c565b506040820151816002015560608201518160030160006101000a81548173ffffffffffffffffffffffffffffffffffffffff021916908373ffffffffffffffffffffffffffffffffffffffff160217905550608082015181600401908051906020019061154a929190611d2c565b5060a0820151816005019080519060200190611567929190611d2c565b5050505050505050565b6000600260003373ffffffffffffffffffffffffffffffffffffffff1673ffffffffffffffffffffffffffffffffffffffff168152602001908152602001600020549050600081116115f8576040517f08c379a00000000000000000000000000000000000000000000000000000000081526004016115ef906128cf565b60405180910390fd5b6000600260003373ffffffffffffffffffffffffffffffffffffffff1673ffffffffffffffffffffffffffffffffffffffff168152602001908152602001600020819055503373ffffffffffffffffffffffffffffffffffffffff166108fc829081150290604051600060405180830381858888f19350505050158015611683573d6000803e3d6000fd5b5050565b6000818154811061169757600080fd5b90600052602060002090600602016000915090508060000160009054906101000a900473ffffffffffffffffffffffffffffffffffffffff16908060010154908060020154908060030160009054906101000a900460ff16908060030160019054906101000a900460ff16908060040154908060050160009054906101000a900473ffffffffffffffffffffffffffffffffffffffff16905087565b6003602052816000526040600020818154811061174f57600080fd5b90600052602060002001600091509150505481565b600080828154811061179f577f4e487b7100000000000000000000000000000000000000000000000000000000600052603260045260246000fd5b906000526020600020906006020190508060000160009054906101000a900473ffffffffffffffffffffffffffffffffffffffff1673ffffffffffffffffffffffffffffffffffffffff163373ffffffffffffffffffffffffffffffffffffffff1614611841576040517f08c379a0000000000000000000000000000000000000000000000000000000008152600401611838906129cf565b60405180910390fd5b8060030160009054906101000a900460ff16611892576040517f08c379a00000000000000000000000000000000000000000000000000000000081526004016118899061288f565b60405180910390fd5b60008160030160006101000a81548160ff02191690831515021790555060018160030160016101000a81548160ff0219169083151502179055505050565b60006040518060e001604052803373ffffffffffffffffffffffffffffffffffffffff16815260200184815260200183815260200160011515815260200160001515815260200160008152602001600073ffffffffffffffffffffffffffffffffffffffff16815250908060018154018082558091505060019003906000526020600020906006020160009091909190915060008201518160000160006101000a81548173ffffffffffffffffffffffffffffffffffffffff021916908373ffffffffffffffffffffffffffffffffffffffff160217905550602082015181600101556040820151816002015560608201518160030160006101000a81548160ff02191690831515021790555060808201518160030160016101000a81548160ff02191690831515021790555060a0820151816004015560c08201518160050160006101000a81548173ffffffffffffffffffffffffffffffffffffffff021916908373ffffffffffffffffffffffffffffffffffffffff16021790555050505050565b60018181548110611a6457600080fd5b9060005260206000209060060201600091509050806000018054611a8790612cb8565b80601f0160208091040260200160405190810160405280929190818152602001828054611ab390612cb8565b8015611b005780601f10611ad557610100808354040283529160200191611b00565b820191906000526020600020905b815481529060010190602001808311611ae357829003601f168201915b505050505090806001018054611b1590612cb8565b80601f0160208091040260200160405190810160405280929190818152602001828054611b4190612cb8565b8015611b8e5780601f10611b6357610100808354040283529160200191611b8e565b820191906000526020600020905b815481529060010190602001808311611b7157829003601f168201915b5050505050908060020154908060030160009054906101000a900473ffffffffffffffffffffffffffffffffffffffff1690806004018054611bcf90612cb8565b80601f0160208091040260200160405190810160405280929190818152602001828054611bfb90612cb8565b8015611c485780601f10611c1d57610100808354040283529160200191611c48565b820191906000526020600020905b815481529060010190602001808311611c2b57829003601f168201915b505050505090806005018054611c5d90612cb8565b80601f0160208091040260200160405190810160405280929190818152602001828054611c8990612cb8565b8015611cd65780601f10611cab57610100808354040283529160200191611cd6565b820191906000526020600020905b815481529060010190602001808311611cb957829003601f168201915b5050505050905086565b6040518060c00160405280606081526020016060815260200160008152602001600073ffffffffffffffffffffffffffffffffffffffff16815260200160608152602001606081525090565b828054611d3890612cb8565b90600052602060002090601f016020900481019282611d5a5760008555611da1565b82601f10611d7357805160ff1916838001178555611da1565b82800160010185558215611da1579182015b82811115611da0578251825591602001919060010190611d85565b5b509050611dae9190611db2565b5090565b5b80821115611dcb576000816000905550600101611db3565b5090565b6000611de2611ddd84612a5b565b612a2a565b905082815260208101848484011115611dfa57600080fd5b611e05848285612c76565b509392505050565b600081359050611e1c81612dd1565b92915050565b600082601f830112611e3357600080fd5b8135611e43848260208601611dcf565b91505092915050565b600081359050611e5b81612de8565b92915050565b600060208284031215611e7357600080fd5b6000611e8184828501611e0d565b91505092915050565b60008060408385031215611e9d57600080fd5b6000611eab85828601611e0d565b9250506020611ebc85828601611e4c565b9150509250929050565b600060208284031215611ed857600080fd5b600082013567ffffffffffffffff811115611ef257600080fd5b611efe84828501611e22565b91505092915050565b600080600080600060a08688031215611f1f57600080fd5b600086013567ffffffffffffffff811115611f3957600080fd5b611f4588828901611e22565b955050602086013567ffffffffffffffff811115611f6257600080fd5b611f6e88828901611e22565b9450506040611f7f88828901611e4c565b935050606086013567ffffffffffffffff811115611f9c57600080fd5b611fa888828901611e22565b925050608086013567ffffffffffffffff811115611fc557600080fd5b611fd188828901611e22565b9150509295509295909350565b600060208284031215611ff057600080fd5b6000611ffe84828501611e4c565b91505092915050565b6000806040838503121561201a57600080fd5b600061202885828601611e4c565b925050602061203985828601611e4c565b9150509250929050565b600061204f8383612629565b905092915050565b600061206383836126c7565b60208301905092915050565b61207881612c2e565b82525050565b61208781612c2e565b82525050565b600061209882612ac0565b6120a28185612afb565b9350836020820285016120b485612a8b565b8060005b858110156120f057848403895281516120d18582612043565b94506120dc83612ae1565b925060208a019950506001810190506120b8565b50829750879550505050505092915050565b600061210d82612acb565b6121178185612b0c565b935061212283612a9b565b8060005b8381101561215357815161213a8882612057565b975061214583612aee565b925050600181019050612126565b5085935050505092915050565b61216981612c40565b82525050565b600061217a82612ad6565b6121848185612b1d565b9350612194818560208601612c85565b61219d81612dc0565b840191505092915050565b60006121b382612ad6565b6121bd8185612b2e565b93506121cd818560208601612c85565b6121d681612dc0565b840191505092915050565b60006121ec82612ad6565b6121f68185612b3f565b9350612206818560208601612c85565b80840191505092915050565b6000815461221f81612cb8565b6122298186612b3f565b94506001821660008114612244576001811461225557612288565b60ff19831686528186019350612288565b61225e85612aab565b60005b8381101561228057815481890152600182019150602081019050612261565b838801955050505b50505092915050565b600061229e601983612b2e565b91507f4f6666657220697320616c726561647920696e616374697665000000000000006000830152602082019050919050565b60006122de601583612b2e565b91507f4f66666572206973207374696c6c2061637469766500000000000000000000006000830152602082019050919050565b600061231e601483612b2e565b91507f4e6f2066756e647320746f2077697468647261770000000000000000000000006000830152602082019050919050565b600061235e602283612b2e565b91507f52657475726e20616c6c6f776564206f6e6c792077697468696e206f6e65206460008301527f61790000000000000000000000000000000000000000000000000000000000006020830152604082019050919050565b60006123c4601283612b2e565b91507f496e73756666696369656e742066756e647300000000000000000000000000006000830152602082019050919050565b6000612404602383612b2e565b91507f50726f76696465722063616e6e6f7420627579207468656972206f776e206f6660008301527f66657200000000000000000000000000000000000000000000000000000000006020830152604082019050919050565b600061246a602783612b2e565b91507f4f6e6c79207468652070726f76696465722063616e20696e697469617465206160008301527f2072657475726e000000000000000000000000000000000000000000000000006020830152604082019050919050565b60006124d0601f83612b2e565b91507f496e73756666696369656e742062616c616e636520666f722072657475726e006000830152602082019050919050565b6000612510601b83612b2e565b91507f4e6f20627579657220746f2072657475726e2066756e647320746f00000000006000830152602082019050919050565b6000612550600e83612b2e565b91507f46696c65206e6f7420666f756e640000000000000000000000000000000000006000830152602082019050919050565b6000612590602683612b2e565b91507f4f6e6c79207468652070726f76696465722063616e2063616e63656c2074686560008301527f206f6666657200000000000000000000000000000000000000000000000000006020830152604082019050919050565b60006125f6601383612b2e565b91507f4f66666572206973206e6f7420616374697665000000000000000000000000006000830152602082019050919050565b600060c0830160008301518482036000860152612646828261216f565b91505060208301518482036020860152612660828261216f565b915050604083015161267560408601826126c7565b506060830151612688606086018261206f565b50608083015184820360808601526126a0828261216f565b91505060a083015184820360a08601526126ba828261216f565b9150508091505092915050565b6126d081612c6c565b82525050565b6126df81612c6c565b82525050565b60006126f182846121e1565b915081905092915050565b60006127088284612212565b915081905092915050565b600060e082019050612728600083018a61207e565b61273560208301896126d6565b61274260408301886126d6565b61274f6060830187612160565b61275c6080830186612160565b61276960a08301856126d6565b61277660c083018461207e565b98975050505050505050565b6000602082019050818103600083015261279c818461208d565b905092915050565b600060208201905081810360008301526127be8184612102565b905092915050565b600060608201905081810360008301526127e081866121a8565b905081810360208301526127f481856121a8565b9050818103604083015261280881846121a8565b9050949350505050565b600060c082019050818103600083015261282c81896121a8565b9050818103602083015261284081886121a8565b905061284f60408301876126d6565b61285c606083018661207e565b818103608083015261286e81856121a8565b905081810360a083015261288281846121a8565b9050979650505050505050565b600060208201905081810360008301526128a881612291565b9050919050565b600060208201905081810360008301526128c8816122d1565b9050919050565b600060208201905081810360008301526128e881612311565b9050919050565b6000602082019050818103600083015261290881612351565b9050919050565b60006020820190508181036000830152612928816123b7565b9050919050565b60006020820190508181036000830152612948816123f7565b9050919050565b600060208201905081810360008301526129688161245d565b9050919050565b60006020820190508181036000830152612988816124c3565b9050919050565b600060208201905081810360008301526129a881612503565b9050919050565b600060208201905081810360008301526129c881612543565b9050919050565b600060208201905081810360008301526129e881612583565b9050919050565b60006020820190508181036000830152612a08816125e9565b9050919050565b6000602082019050612a2460008301846126d6565b92915050565b6000604051905081810181811067ffffffffffffffff82111715612a5157612a50612d91565b5b8060405250919050565b600067ffffffffffffffff821115612a7657612a75612d91565b5b601f19601f8301169050602081019050919050565b6000819050602082019050919050565b6000819050602082019050919050565b60008190508160005260206000209050919050565b600081519050919050565b600081519050919050565b600081519050919050565b6000602082019050919050565b6000602082019050919050565b600082825260208201905092915050565b600082825260208201905092915050565b600082825260208201905092915050565b600082825260208201905092915050565b600081905092915050565b6000612b5582612c6c565b9150612b6083612c6c565b9250827fffffffffffffffffffffffffffffffffffffffffffffffffffffffffffffffff03821115612b9557612b94612d33565b5b828201905092915050565b6000612bab82612c6c565b9150612bb683612c6c565b9250817fffffffffffffffffffffffffffffffffffffffffffffffffffffffffffffffff0483118215151615612bef57612bee612d33565b5b828202905092915050565b6000612c0582612c6c565b9150612c1083612c6c565b925082821015612c2357612c22612d33565b5b828203905092915050565b6000612c3982612c4c565b9050919050565b60008115159050919050565b600073ffffffffffffffffffffffffffffffffffffffff82169050919050565b6000819050919050565b82818337600083830152505050565b60005b83811015612ca3578082015181840152602081019050612c88565b83811115612cb2576000848401525b50505050565b60006002820490506001821680612cd057607f821691505b60208210811415612ce457612ce3612d62565b5b50919050565b6000612cf582612c6c565b91507fffffffffffffffffffffffffffffffffffffffffffffffffffffffffffffffff821415612d2857612d27612d33565b5b600182019050919050565b7f4e487b7100000000000000000000000000000000000000000000000000000000600052601160045260246000fd5b7f4e487b7100000000000000000000000000000000000000000000000000000000600052602260045260246000fd5b7f4e487b7100000000000000000000000000000000000000000000000000000000600052604160045260246000fd5b6000601f19601f8301169050919050565b612dda81612c2e565b8114612de557600080fd5b50565b612df181612c6c565b8114612dfc57600080fd5b5056fea2646970667358221220f8fa443a79cd34e700fd5bbf01d24a0dabeb6b49e948daf0f7b00c4becd2ea1064736f6c63430008000033",
  "immutableReferences": {},
  "source": "// SPDX-License-Identifier: MIT\r\npragma solidity ^0.8.0;\r\n\r\ncontract StoragePlatform {\r\n    struct StorageOffer {\r\n        address provider;\r\n        uint capacity; //  MB\r\n        uint pricePerMBPerDay; //  Wei\r\n        bool isActive;\r\n        bool isCancelled;\r\n        uint purchaseTimestamp; //   \r\n        address buyer; //   (  )\r\n    }\r\n\r\n    struct File {\r\n        string cid;\r\n        string fileName;\r\n        uint size; //     (, 762  7.62 MB)\r\n        address owner;\r\n        string encryptedAESKey;\r\n        string iv;\r\n    }\r\n\r\n\r\n    StorageOffer[] public storageOffers;\r\n    File[] public files;\r\n    mapping(address => uint) public providerBalances; //   \r\n    mapping(address => uint[]) public userPurchasedOffers; //     \r\n\r\n    //     \r\n    function registerProvider(uint capacity, uint pricePerMBPerDay) public {\r\n        storageOffers.push(StorageOffer(msg.sender, capacity, pricePerMBPerDay, true, false, 0, address(0)));\r\n    }\r\n\r\n    //    \r\n    function purchaseStorage(uint offerIndex) public payable {\r\n        StorageOffer storage offer = storageOffers[offerIndex];\r\n        require(offer.isActive, \"Offer is not active\");\r\n        require(msg.sender != offer.provider, \"Provider cannot buy their own offer\");\r\n\r\n        uint cost = offer.pricePerMBPerDay * offer.capacity;\r\n        require(msg.value >= cost, \"Insufficient funds\");\r\n\r\n        //    \r\n        providerBalances[offer.provider] += msg.value;\r\n        userPurchasedOffers[msg.sender].push(offerIndex);\r\n        offer.isActive = false;\r\n        offer.purchaseTimestamp = block.timestamp;\r\n        offer.buyer = msg.sender; //   \r\n    }\r\n\r\n    // Function to cancel an offer\r\n    function cancelOffer(uint offerIndex) public {\r\n        StorageOffer storage offer = storageOffers[offerIndex];\r\n        require(msg.sender == offer.provider, \"Only the provider can cancel the offer\");\r\n        require(offer.isActive, \"Offer is already inactive\");\r\n\r\n        // Mark the offer as inactive\r\n        offer.isActive = false;\r\n        offer.isCancelled = true;\r\n    }\r\n\r\n\r\n\r\n    //           \r\n    function returnStorage(uint offerIndex) public {\r\n        StorageOffer storage offer = storageOffers[offerIndex];\r\n        require(msg.sender == offer.provider, \"Only the provider can initiate a return\");\r\n        require(!offer.isActive, \"Offer is still active\");\r\n        require(offer.buyer != address(0), \"No buyer to return funds to\");\r\n\r\n        //     (24 )\r\n        require(block.timestamp <= offer.purchaseTimestamp + 1 days, \"Return allowed only within one day\");\r\n\r\n        uint cost = offer.pricePerMBPerDay * offer.capacity;\r\n        require(providerBalances[msg.sender] >= cost, \"Insufficient balance for return\");\r\n\r\n        //   \r\n        address payable buyer = payable(offer.buyer);\r\n        providerBalances[msg.sender] -= cost;\r\n        buyer.transfer(cost);\r\n\r\n        //    \r\n        offer.isCancelled = true;\r\n        offer.isActive = false; //    (  )\r\n        offer.buyer = address(0);\r\n    }\r\n\r\n    //       \r\n    function uploadFile(\r\n            string memory cid,\r\n            string memory fileName,\r\n            uint size,\r\n            string memory encryptedAESKey,\r\n            string memory iv\r\n        ) public {\r\n            files.push(File(cid, fileName, size, msg.sender, encryptedAESKey, iv));\r\n        }\r\n\r\n\r\n    //      \r\n    function getUserFiles(address user) public view returns (File[] memory) {\r\n        uint fileCount = 0;\r\n        for (uint i = 0; i < files.length; i++) {\r\n            if (files[i].owner == user) {\r\n                fileCount++;\r\n            }\r\n        }\r\n\r\n        File[] memory userFiles = new File[](fileCount);\r\n        uint index = 0;\r\n        for (uint i = 0; i < files.length; i++) {\r\n            if (files[i].owner == user) {\r\n                userFiles[index] = files[i];\r\n                index++;\r\n            }\r\n        }\r\n        return userFiles;\r\n    }\r\n\r\n    // Solidity:     -\r\n    function getFileData(string memory fileHash) public view returns (string memory encryptedAESKey, string memory iv, string memory fileName) {\r\n        for (uint i = 0; i < files.length; i++) {\r\n            if (keccak256(abi.encodePacked(files[i].cid)) == keccak256(abi.encodePacked(fileHash))) {\r\n                return (files[i].encryptedAESKey, files[i].iv, files[i].fileName);\r\n            }\r\n        }\r\n        revert(\"File not found\");\r\n    }\r\n\r\n\r\n    //      \r\n    function getStorageOffersCount() public view returns (uint) {\r\n        return storageOffers.length;\r\n    }\r\n\r\n    //       \r\n    function getUserPurchasedOffers(address user) public view returns (uint[] memory) {\r\n        return userPurchasedOffers[user];\r\n    }\r\n\r\n    //      \r\n    function withdrawEarnings() public {\r\n        uint balance = providerBalances[msg.sender];\r\n        require(balance > 0, \"No funds to withdraw\");\r\n\r\n        providerBalances[msg.sender] = 0;\r\n        payable(msg.sender).transfer(balance);\r\n    }\r\n}\r\n",
  "sourcePath": "C:\\Users\\PC\\Desktop\\decentralized-storage-platform\\contracts\\StoragePlatform.sol",
  "compiler": {
    "name": "solc",
    "version": "0.8.0+commit.c7dfd78e.Emscripten.clang"
  },
  "schemaVersion": "3.4.16",
  "updatedAt": "2024-11-08T05:30:04.069Z",
  "networkType": "ethereum",
  "devdoc": {
    "kind": "dev",
    "methods": {},
    "version": 1
  },
  "userdoc": {
    "kind": "user",
    "methods": {},
    "version": 1
  }
}