{
  "contractName": "StoragePlatform",
  "abi": [
    {
      "inputs": [
        {
          "internalType": "uint256",
          "name": "",
          "type": "uint256"
        }
      ],
      "name": "files",
      "outputs": [
        {
          "internalType": "string",
          "name": "cid",
          "type": "string"
        },
        {
          "internalType": "string",
          "name": "fileName",
          "type": "string"
        },
        {
          "internalType": "uint256",
          "name": "size",
          "type": "uint256"
        },
        {
          "internalType": "address",
          "name": "owner",
          "type": "address"
        },
        {
          "internalType": "string",
          "name": "encryptedAESKey",
          "type": "string"
        },
        {
          "internalType": "string",
          "name": "iv",
          "type": "string"
        }
      ],
      "stateMutability": "view",
      "type": "function",
      "constant": true
    },
    {
      "inputs": [
        {
          "internalType": "address",
          "name": "",
          "type": "address"
        }
      ],
      "name": "providerBalances",
      "outputs": [
        {
          "internalType": "uint256",
          "name": "",
          "type": "uint256"
        }
      ],
      "stateMutability": "view",
      "type": "function",
      "constant": true
    },
    {
      "inputs": [
        {
          "internalType": "uint256",
          "name": "",
          "type": "uint256"
        }
      ],
      "name": "storageOffers",
      "outputs": [
        {
          "internalType": "address",
          "name": "provider",
          "type": "address"
        },
        {
          "internalType": "uint256",
          "name": "capacity",
          "type": "uint256"
        },
        {
          "internalType": "uint256",
          "name": "pricePerMBPerDay",
          "type": "uint256"
        },
        {
          "internalType": "bool",
          "name": "isActive",
          "type": "bool"
        },
        {
          "internalType": "bool",
          "name": "isCancelled",
          "type": "bool"
        },
        {
          "internalType": "uint256",
          "name": "purchaseTimestamp",
          "type": "uint256"
        },
        {
          "internalType": "address",
          "name": "buyer",
          "type": "address"
        }
      ],
      "stateMutability": "view",
      "type": "function",
      "constant": true
    },
    {
      "inputs": [
        {
          "internalType": "address",
          "name": "",
          "type": "address"
        },
        {
          "internalType": "uint256",
          "name": "",
          "type": "uint256"
        }
      ],
      "name": "userPurchasedOffers",
      "outputs": [
        {
          "internalType": "uint256",
          "name": "",
          "type": "uint256"
        }
      ],
      "stateMutability": "view",
      "type": "function",
      "constant": true
    },
    {
      "inputs": [
        {
          "internalType": "uint256",
          "name": "capacity",
          "type": "uint256"
        },
        {
          "internalType": "uint256",
          "name": "pricePerMBPerDay",
          "type": "uint256"
        }
      ],
      "name": "registerProvider",
      "outputs": [],
      "stateMutability": "nonpayable",
      "type": "function"
    },
    {
      "inputs": [
        {
          "internalType": "uint256",
          "name": "offerIndex",
          "type": "uint256"
        }
      ],
      "name": "purchaseStorage",
      "outputs": [],
      "stateMutability": "payable",
      "type": "function",
      "payable": true
    },
    {
      "inputs": [
        {
          "internalType": "uint256",
          "name": "offerIndex",
          "type": "uint256"
        }
      ],
      "name": "cancelOffer",
      "outputs": [],
      "stateMutability": "nonpayable",
      "type": "function"
    },
    {
      "inputs": [
        {
          "internalType": "uint256",
          "name": "offerIndex",
          "type": "uint256"
        }
      ],
      "name": "returnStorage",
      "outputs": [],
      "stateMutability": "nonpayable",
      "type": "function"
    },
    {
      "inputs": [
        {
          "internalType": "string",
          "name": "cid",
          "type": "string"
        },
        {
          "internalType": "string",
          "name": "fileName",
          "type": "string"
        },
        {
          "internalType": "uint256",
          "name": "size",
          "type": "uint256"
        },
        {
          "internalType": "string",
          "name": "encryptedAESKey",
          "type": "string"
        },
        {
          "internalType": "string",
          "name": "iv",
          "type": "string"
        }
      ],
      "name": "uploadFile",
      "outputs": [],
      "stateMutability": "nonpayable",
      "type": "function"
    },
    {
      "inputs": [
        {
          "internalType": "address",
          "name": "user",
          "type": "address"
        }
      ],
      "name": "getUserFiles",
      "outputs": [
        {
          "components": [
            {
              "internalType": "string",
              "name": "cid",
              "type": "string"
            },
            {
              "internalType": "string",
              "name": "fileName",
              "type": "string"
            },
            {
              "internalType": "uint256",
              "name": "size",
              "type": "uint256"
            },
            {
              "internalType": "address",
              "name": "owner",
              "type": "address"
            },
            {
              "internalType": "string",
              "name": "encryptedAESKey",
              "type": "string"
            },
            {
              "internalType": "string",
              "name": "iv",
              "type": "string"
            }
          ],
          "internalType": "struct StoragePlatform.File[]",
          "name": "",
          "type": "tuple[]"
        }
      ],
      "stateMutability": "view",
      "type": "function",
      "constant": true
    },
    {
      "inputs": [],
      "name": "getStorageOffersCount",
      "outputs": [
        {
          "internalType": "uint256",
          "name": "",
          "type": "uint256"
        }
      ],
      "stateMutability": "view",
      "type": "function",
      "constant": true
    },
    {
      "inputs": [
        {
          "internalType": "address",
          "name": "user",
          "type": "address"
        }
      ],
      "name": "getUserPurchasedOffers",
      "outputs": [
        {
          "internalType": "uint256[]",
          "name": "",
          "type": "uint256[]"
        }
      ],
      "stateMutability": "view",
      "type": "function",
      "constant": true
    },
    {
      "inputs": [],
      "name": "withdrawEarnings",
      "outputs": [],
      "stateMutability": "nonpayable",
      "type": "function"
    }
  ],
  "bytecode": "0x608060405234801561001057600080fd5b50612856806100206000396000f3fe6080604052600436106100c25760003560e01c8063b51efc6f1161007f578063be515cae11610059578063be515cae14610271578063ef706adf146102ae578063f28f35c4146102d7578063f4c714b414610300576100c2565b8063b51efc6f146101ee578063b73c6ce914610217578063b8f7403b1461022e576100c2565b80631fc37922146100c757806328ac7f2c146101045780633edc281c1461014157806353c08baa1461016a57806357c118a71461019557806381abc1b9146101d2575b600080fd5b3480156100d357600080fd5b506100ee60048036038101906100e99190611a6d565b610342565b6040516100fb919061222f565b60405180910390f35b34801561011057600080fd5b5061012b60048036038101906101269190611a6d565b6108b2565b6040516101389190612450565b60405180910390f35b34801561014d57600080fd5b5061016860048036038101906101639190611ba9565b6108ca565b005b34801561017657600080fd5b5061017f610cc6565b60405161018c9190612450565b60405180910390f35b3480156101a157600080fd5b506101bc60048036038101906101b79190611a6d565b610cd2565b6040516101c99190612251565b60405180910390f35b6101ec60048036038101906101e79190611ba9565b610d69565b005b3480156101fa57600080fd5b5061021560048036038101906102109190611ad2565b611041565b005b34801561022357600080fd5b5061022c61117d565b005b34801561023a57600080fd5b5061025560048036038101906102509190611ba9565b611293565b60405161026897969594939291906121c0565b60405180910390f35b34801561027d57600080fd5b5061029860048036038101906102939190611a96565b61133f565b6040516102a59190612450565b60405180910390f35b3480156102ba57600080fd5b506102d560048036038101906102d09190611ba9565b611370565b005b3480156102e357600080fd5b506102fe60048036038101906102f99190611bd2565b6114dc565b005b34801561030c57600080fd5b5061032760048036038101906103229190611ba9565b611660565b60405161033996959493929190612273565b60405180910390f35b60606000805b600180549050811015610416578373ffffffffffffffffffffffffffffffffffffffff16600182815481106103a6577f4e487b7100000000000000000000000000000000000000000000000000000000600052603260045260246000fd5b906000526020600020906006020160030160009054906101000a900473ffffffffffffffffffffffffffffffffffffffff1673ffffffffffffffffffffffffffffffffffffffff1614156104035781806103ff9061270b565b9250505b808061040e9061270b565b915050610348565b5060008167ffffffffffffffff811115610459577f4e487b7100000000000000000000000000000000000000000000000000000000600052604160045260246000fd5b60405190808252806020026020018201604052801561049257816020015b61047f6118ec565b8152602001906001900390816104775790505b5090506000805b6001805490508110156108a6578573ffffffffffffffffffffffffffffffffffffffff16600182815481106104f7577f4e487b7100000000000000000000000000000000000000000000000000000000600052603260045260246000fd5b906000526020600020906006020160030160009054906101000a900473ffffffffffffffffffffffffffffffffffffffff1673ffffffffffffffffffffffffffffffffffffffff161415610893576001818154811061057f577f4e487b7100000000000000000000000000000000000000000000000000000000600052603260045260246000fd5b90600052602060002090600602016040518060c00160405290816000820180546105a8906126d9565b80601f01602080910402602001604051908101604052809291908181526020018280546105d4906126d9565b80156106215780601f106105f657610100808354040283529160200191610621565b820191906000526020600020905b81548152906001019060200180831161060457829003601f168201915b5050505050815260200160018201805461063a906126d9565b80601f0160208091040260200160405190810160405280929190818152602001828054610666906126d9565b80156106b35780601f10610688576101008083540402835291602001916106b3565b820191906000526020600020905b81548152906001019060200180831161069657829003601f168201915b50505050508152602001600282015481526020016003820160009054906101000a900473ffffffffffffffffffffffffffffffffffffffff1673ffffffffffffffffffffffffffffffffffffffff1673ffffffffffffffffffffffffffffffffffffffff16815260200160048201805461072c906126d9565b80601f0160208091040260200160405190810160405280929190818152602001828054610758906126d9565b80156107a55780601f1061077a576101008083540402835291602001916107a5565b820191906000526020600020905b81548152906001019060200180831161078857829003601f168201915b505050505081526020016005820180546107be906126d9565b80601f01602080910402602001604051908101604052809291908181526020018280546107ea906126d9565b80156108375780601f1061080c57610100808354040283529160200191610837565b820191906000526020600020905b81548152906001019060200180831161081a57829003601f168201915b505050505081525050838381518110610879577f4e487b7100000000000000000000000000000000000000000000000000000000600052603260045260246000fd5b6020026020010181905250818061088f9061270b565b9250505b808061089e9061270b565b915050610499565b50819350505050919050565b60026020528060005260406000206000915090505481565b6000808281548110610905577f4e487b7100000000000000000000000000000000000000000000000000000000600052603260045260246000fd5b906000526020600020906006020190508060000160009054906101000a900473ffffffffffffffffffffffffffffffffffffffff1673ffffffffffffffffffffffffffffffffffffffff163373ffffffffffffffffffffffffffffffffffffffff16146109a7576040517f08c379a000000000000000000000000000000000000000000000000000000000815260040161099e906123b0565b60405180910390fd5b8060030160009054906101000a900460ff16156109f9576040517f08c379a00000000000000000000000000000000000000000000000000000000081526004016109f090612310565b60405180910390fd5b600073ffffffffffffffffffffffffffffffffffffffff168160050160009054906101000a900473ffffffffffffffffffffffffffffffffffffffff1673ffffffffffffffffffffffffffffffffffffffff161415610a8d576040517f08c379a0000000000000000000000000000000000000000000000000000000008152600401610a84906123f0565b60405180910390fd5b620151808160040154610aa0919061256b565b421115610ae2576040517f08c379a0000000000000000000000000000000000000000000000000000000008152600401610ad990612350565b60405180910390fd5b600081600101548260020154610af891906125c1565b905080600260003373ffffffffffffffffffffffffffffffffffffffff1673ffffffffffffffffffffffffffffffffffffffff168152602001908152602001600020541015610b7c576040517f08c379a0000000000000000000000000000000000000000000000000000000008152600401610b73906123d0565b60405180910390fd5b60008260050160009054906101000a900473ffffffffffffffffffffffffffffffffffffffff16905081600260003373ffffffffffffffffffffffffffffffffffffffff1673ffffffffffffffffffffffffffffffffffffffff1681526020019081526020016000206000828254610bf4919061261b565b925050819055508073ffffffffffffffffffffffffffffffffffffffff166108fc839081150290604051600060405180830381858888f19350505050158015610c41573d6000803e3d6000fd5b5060018360030160016101000a81548160ff02191690831515021790555060008360030160006101000a81548160ff02191690831515021790555060008360050160006101000a81548173ffffffffffffffffffffffffffffffffffffffff021916908373ffffffffffffffffffffffffffffffffffffffff16021790555050505050565b60008080549050905090565b6060600360008373ffffffffffffffffffffffffffffffffffffffff1673ffffffffffffffffffffffffffffffffffffffff168152602001908152602001600020805480602002602001604051908101604052809291908181526020018280548015610d5d57602002820191906000526020600020905b815481526020019060010190808311610d49575b50505050509050919050565b6000808281548110610da4577f4e487b7100000000000000000000000000000000000000000000000000000000600052603260045260246000fd5b906000526020600020906006020190508060030160009054906101000a900460ff16610e05576040517f08c379a0000000000000000000000000000000000000000000000000000000008152600401610dfc90612430565b60405180910390fd5b8060000160009054906101000a900473ffffffffffffffffffffffffffffffffffffffff1673ffffffffffffffffffffffffffffffffffffffff163373ffffffffffffffffffffffffffffffffffffffff161415610e98576040517f08c379a0000000000000000000000000000000000000000000000000000000008152600401610e8f90612390565b60405180910390fd5b600081600101548260020154610eae91906125c1565b905080341015610ef3576040517f08c379a0000000000000000000000000000000000000000000000000000000008152600401610eea90612370565b60405180910390fd5b34600260008460000160009054906101000a900473ffffffffffffffffffffffffffffffffffffffff1673ffffffffffffffffffffffffffffffffffffffff1673ffffffffffffffffffffffffffffffffffffffff1681526020019081526020016000206000828254610f66919061256b565b92505081905550600360003373ffffffffffffffffffffffffffffffffffffffff1673ffffffffffffffffffffffffffffffffffffffff16815260200190815260200160002083908060018154018082558091505060019003906000526020600020016000909190919091505560008260030160006101000a81548160ff021916908315150217905550428260040181905550338260050160006101000a81548173ffffffffffffffffffffffffffffffffffffffff021916908373ffffffffffffffffffffffffffffffffffffffff160217905550505050565b60016040518060c001604052808781526020018681526020018581526020013373ffffffffffffffffffffffffffffffffffffffff16815260200184815260200183815250908060018154018082558091505060019003906000526020600020906006020160009091909190915060008201518160000190805190602001906110cb929190611938565b5060208201518160010190805190602001906110e8929190611938565b506040820151816002015560608201518160030160006101000a81548173ffffffffffffffffffffffffffffffffffffffff021916908373ffffffffffffffffffffffffffffffffffffffff1602179055506080820151816004019080519060200190611156929190611938565b5060a0820151816005019080519060200190611173929190611938565b5050505050505050565b6000600260003373ffffffffffffffffffffffffffffffffffffffff1673ffffffffffffffffffffffffffffffffffffffff16815260200190815260200160002054905060008111611204576040517f08c379a00000000000000000000000000000000000000000000000000000000081526004016111fb90612330565b60405180910390fd5b6000600260003373ffffffffffffffffffffffffffffffffffffffff1673ffffffffffffffffffffffffffffffffffffffff168152602001908152602001600020819055503373ffffffffffffffffffffffffffffffffffffffff166108fc829081150290604051600060405180830381858888f1935050505015801561128f573d6000803e3d6000fd5b5050565b600081815481106112a357600080fd5b90600052602060002090600602016000915090508060000160009054906101000a900473ffffffffffffffffffffffffffffffffffffffff16908060010154908060020154908060030160009054906101000a900460ff16908060030160019054906101000a900460ff16908060040154908060050160009054906101000a900473ffffffffffffffffffffffffffffffffffffffff16905087565b6003602052816000526040600020818154811061135b57600080fd5b90600052602060002001600091509150505481565b60008082815481106113ab577f4e487b7100000000000000000000000000000000000000000000000000000000600052603260045260246000fd5b906000526020600020906006020190508060000160009054906101000a900473ffffffffffffffffffffffffffffffffffffffff1673ffffffffffffffffffffffffffffffffffffffff163373ffffffffffffffffffffffffffffffffffffffff161461144d576040517f08c379a000000000000000000000000000000000000000000000000000000000815260040161144490612410565b60405180910390fd5b8060030160009054906101000a900460ff1661149e576040517f08c379a0000000000000000000000000000000000000000000000000000000008152600401611495906122f0565b60405180910390fd5b60008160030160006101000a81548160ff02191690831515021790555060018160030160016101000a81548160ff0219169083151502179055505050565b60006040518060e001604052803373ffffffffffffffffffffffffffffffffffffffff16815260200184815260200183815260200160011515815260200160001515815260200160008152602001600073ffffffffffffffffffffffffffffffffffffffff16815250908060018154018082558091505060019003906000526020600020906006020160009091909190915060008201518160000160006101000a81548173ffffffffffffffffffffffffffffffffffffffff021916908373ffffffffffffffffffffffffffffffffffffffff160217905550602082015181600101556040820151816002015560608201518160030160006101000a81548160ff02191690831515021790555060808201518160030160016101000a81548160ff02191690831515021790555060a0820151816004015560c08201518160050160006101000a81548173ffffffffffffffffffffffffffffffffffffffff021916908373ffffffffffffffffffffffffffffffffffffffff16021790555050505050565b6001818154811061167057600080fd5b9060005260206000209060060201600091509050806000018054611693906126d9565b80601f01602080910402602001604051908101604052809291908181526020018280546116bf906126d9565b801561170c5780601f106116e15761010080835404028352916020019161170c565b820191906000526020600020905b8154815290600101906020018083116116ef57829003601f168201915b505050505090806001018054611721906126d9565b80601f016020809104026020016040519081016040528092919081815260200182805461174d906126d9565b801561179a5780601f1061176f5761010080835404028352916020019161179a565b820191906000526020600020905b81548152906001019060200180831161177d57829003601f168201915b5050505050908060020154908060030160009054906101000a900473ffffffffffffffffffffffffffffffffffffffff16908060040180546117db906126d9565b80601f0160208091040260200160405190810160405280929190818152602001828054611807906126d9565b80156118545780601f1061182957610100808354040283529160200191611854565b820191906000526020600020905b81548152906001019060200180831161183757829003601f168201915b505050505090806005018054611869906126d9565b80601f0160208091040260200160405190810160405280929190818152602001828054611895906126d9565b80156118e25780601f106118b7576101008083540402835291602001916118e2565b820191906000526020600020905b8154815290600101906020018083116118c557829003601f168201915b5050505050905086565b6040518060c00160405280606081526020016060815260200160008152602001600073ffffffffffffffffffffffffffffffffffffffff16815260200160608152602001606081525090565b828054611944906126d9565b90600052602060002090601f01602090048101928261196657600085556119ad565b82601f1061197f57805160ff19168380011785556119ad565b828001600101855582156119ad579182015b828111156119ac578251825591602001919060010190611991565b5b5090506119ba91906119be565b5090565b5b808211156119d75760008160009055506001016119bf565b5090565b60006119ee6119e98461249c565b61246b565b905082815260208101848484011115611a0657600080fd5b611a11848285612697565b509392505050565b600081359050611a28816127f2565b92915050565b600082601f830112611a3f57600080fd5b8135611a4f8482602086016119db565b91505092915050565b600081359050611a6781612809565b92915050565b600060208284031215611a7f57600080fd5b6000611a8d84828501611a19565b91505092915050565b60008060408385031215611aa957600080fd5b6000611ab785828601611a19565b9250506020611ac885828601611a58565b9150509250929050565b600080600080600060a08688031215611aea57600080fd5b600086013567ffffffffffffffff811115611b0457600080fd5b611b1088828901611a2e565b955050602086013567ffffffffffffffff811115611b2d57600080fd5b611b3988828901611a2e565b9450506040611b4a88828901611a58565b935050606086013567ffffffffffffffff811115611b6757600080fd5b611b7388828901611a2e565b925050608086013567ffffffffffffffff811115611b9057600080fd5b611b9c88828901611a2e565b9150509295509295909350565b600060208284031215611bbb57600080fd5b6000611bc984828501611a58565b91505092915050565b60008060408385031215611be557600080fd5b6000611bf385828601611a58565b9250506020611c0485828601611a58565b9150509250929050565b6000611c1a8383612104565b905092915050565b6000611c2e83836121a2565b60208301905092915050565b611c438161264f565b82525050565b611c528161264f565b82525050565b6000611c63826124ec565b611c6d8185612527565b935083602082028501611c7f856124cc565b8060005b85811015611cbb5784840389528151611c9c8582611c0e565b9450611ca78361250d565b925060208a01995050600181019050611c83565b50829750879550505050505092915050565b6000611cd8826124f7565b611ce28185612538565b9350611ced836124dc565b8060005b83811015611d1e578151611d058882611c22565b9750611d108361251a565b925050600181019050611cf1565b5085935050505092915050565b611d3481612661565b82525050565b6000611d4582612502565b611d4f8185612549565b9350611d5f8185602086016126a6565b611d68816127e1565b840191505092915050565b6000611d7e82612502565b611d88818561255a565b9350611d988185602086016126a6565b611da1816127e1565b840191505092915050565b6000611db960198361255a565b91507f4f6666657220697320616c726561647920696e616374697665000000000000006000830152602082019050919050565b6000611df960158361255a565b91507f4f66666572206973207374696c6c2061637469766500000000000000000000006000830152602082019050919050565b6000611e3960148361255a565b91507f4e6f2066756e647320746f2077697468647261770000000000000000000000006000830152602082019050919050565b6000611e7960228361255a565b91507f52657475726e20616c6c6f776564206f6e6c792077697468696e206f6e65206460008301527f61790000000000000000000000000000000000000000000000000000000000006020830152604082019050919050565b6000611edf60128361255a565b91507f496e73756666696369656e742066756e647300000000000000000000000000006000830152602082019050919050565b6000611f1f60238361255a565b91507f50726f76696465722063616e6e6f7420627579207468656972206f776e206f6660008301527f66657200000000000000000000000000000000000000000000000000000000006020830152604082019050919050565b6000611f8560278361255a565b91507f4f6e6c79207468652070726f76696465722063616e20696e697469617465206160008301527f2072657475726e000000000000000000000000000000000000000000000000006020830152604082019050919050565b6000611feb601f8361255a565b91507f496e73756666696369656e742062616c616e636520666f722072657475726e006000830152602082019050919050565b600061202b601b8361255a565b91507f4e6f20627579657220746f2072657475726e2066756e647320746f00000000006000830152602082019050919050565b600061206b60268361255a565b91507f4f6e6c79207468652070726f76696465722063616e2063616e63656c2074686560008301527f206f6666657200000000000000000000000000000000000000000000000000006020830152604082019050919050565b60006120d160138361255a565b91507f4f66666572206973206e6f7420616374697665000000000000000000000000006000830152602082019050919050565b600060c08301600083015184820360008601526121218282611d3a565b9150506020830151848203602086015261213b8282611d3a565b915050604083015161215060408601826121a2565b5060608301516121636060860182611c3a565b506080830151848203608086015261217b8282611d3a565b91505060a083015184820360a08601526121958282611d3a565b9150508091505092915050565b6121ab8161268d565b82525050565b6121ba8161268d565b82525050565b600060e0820190506121d5600083018a611c49565b6121e260208301896121b1565b6121ef60408301886121b1565b6121fc6060830187611d2b565b6122096080830186611d2b565b61221660a08301856121b1565b61222360c0830184611c49565b98975050505050505050565b600060208201905081810360008301526122498184611c58565b905092915050565b6000602082019050818103600083015261226b8184611ccd565b905092915050565b600060c082019050818103600083015261228d8189611d73565b905081810360208301526122a18188611d73565b90506122b060408301876121b1565b6122bd6060830186611c49565b81810360808301526122cf8185611d73565b905081810360a08301526122e38184611d73565b9050979650505050505050565b6000602082019050818103600083015261230981611dac565b9050919050565b6000602082019050818103600083015261232981611dec565b9050919050565b6000602082019050818103600083015261234981611e2c565b9050919050565b6000602082019050818103600083015261236981611e6c565b9050919050565b6000602082019050818103600083015261238981611ed2565b9050919050565b600060208201905081810360008301526123a981611f12565b9050919050565b600060208201905081810360008301526123c981611f78565b9050919050565b600060208201905081810360008301526123e981611fde565b9050919050565b600060208201905081810360008301526124098161201e565b9050919050565b600060208201905081810360008301526124298161205e565b9050919050565b60006020820190508181036000830152612449816120c4565b9050919050565b600060208201905061246560008301846121b1565b92915050565b6000604051905081810181811067ffffffffffffffff82111715612492576124916127b2565b5b8060405250919050565b600067ffffffffffffffff8211156124b7576124b66127b2565b5b601f19601f8301169050602081019050919050565b6000819050602082019050919050565b6000819050602082019050919050565b600081519050919050565b600081519050919050565b600081519050919050565b6000602082019050919050565b6000602082019050919050565b600082825260208201905092915050565b600082825260208201905092915050565b600082825260208201905092915050565b600082825260208201905092915050565b60006125768261268d565b91506125818361268d565b9250827fffffffffffffffffffffffffffffffffffffffffffffffffffffffffffffffff038211156125b6576125b5612754565b5b828201905092915050565b60006125cc8261268d565b91506125d78361268d565b9250817fffffffffffffffffffffffffffffffffffffffffffffffffffffffffffffffff04831182151516156126105761260f612754565b5b828202905092915050565b60006126268261268d565b91506126318361268d565b92508282101561264457612643612754565b5b828203905092915050565b600061265a8261266d565b9050919050565b60008115159050919050565b600073ffffffffffffffffffffffffffffffffffffffff82169050919050565b6000819050919050565b82818337600083830152505050565b60005b838110156126c45780820151818401526020810190506126a9565b838111156126d3576000848401525b50505050565b600060028204905060018216806126f157607f821691505b6020821081141561270557612704612783565b5b50919050565b60006127168261268d565b91507fffffffffffffffffffffffffffffffffffffffffffffffffffffffffffffffff82141561274957612748612754565b5b600182019050919050565b7f4e487b7100000000000000000000000000000000000000000000000000000000600052601160045260246000fd5b7f4e487b7100000000000000000000000000000000000000000000000000000000600052602260045260246000fd5b7f4e487b7100000000000000000000000000000000000000000000000000000000600052604160045260246000fd5b6000601f19601f8301169050919050565b6127fb8161264f565b811461280657600080fd5b50565b6128128161268d565b811461281d57600080fd5b5056fea264697066735822122062eda9c5edf26725222eb9069a6107f9d7de7836f9bfd8c384be1980c532738d64736f6c63430008000033",
  "immutableReferences": {},
  "source": "// SPDX-License-Identifier: MIT\r\npragma solidity ^0.8.0;\r\n\r\ncontract StoragePlatform {\r\n    struct StorageOffer {\r\n        address provider;\r\n        uint capacity; //  MB\r\n        uint pricePerMBPerDay; //  Wei\r\n        bool isActive;\r\n        bool isCancelled;\r\n        uint purchaseTimestamp; //   \r\n        address buyer; //   (  )\r\n    }\r\n\r\n    struct File {\r\n        string cid;\r\n        string fileName;\r\n        uint size; //     (, 762  7.62 MB)\r\n        address owner;\r\n        string encryptedAESKey;\r\n        string iv;\r\n    }\r\n\r\n\r\n    StorageOffer[] public storageOffers;\r\n    File[] public files;\r\n    mapping(address => uint) public providerBalances; //   \r\n    mapping(address => uint[]) public userPurchasedOffers; //     \r\n\r\n    //     \r\n    function registerProvider(uint capacity, uint pricePerMBPerDay) public {\r\n        storageOffers.push(StorageOffer(msg.sender, capacity, pricePerMBPerDay, true, false, 0, address(0)));\r\n    }\r\n\r\n    //    \r\n    function purchaseStorage(uint offerIndex) public payable {\r\n        StorageOffer storage offer = storageOffers[offerIndex];\r\n        require(offer.isActive, \"Offer is not active\");\r\n        require(msg.sender != offer.provider, \"Provider cannot buy their own offer\");\r\n\r\n        uint cost = offer.pricePerMBPerDay * offer.capacity;\r\n        require(msg.value >= cost, \"Insufficient funds\");\r\n\r\n        //    \r\n        providerBalances[offer.provider] += msg.value;\r\n        userPurchasedOffers[msg.sender].push(offerIndex);\r\n        offer.isActive = false;\r\n        offer.purchaseTimestamp = block.timestamp;\r\n        offer.buyer = msg.sender; //   \r\n    }\r\n\r\n    // Function to cancel an offer\r\n    function cancelOffer(uint offerIndex) public {\r\n        StorageOffer storage offer = storageOffers[offerIndex];\r\n        require(msg.sender == offer.provider, \"Only the provider can cancel the offer\");\r\n        require(offer.isActive, \"Offer is already inactive\");\r\n\r\n        // Mark the offer as inactive\r\n        offer.isActive = false;\r\n        offer.isCancelled = true;\r\n    }\r\n\r\n\r\n\r\n    //           \r\n    function returnStorage(uint offerIndex) public {\r\n        StorageOffer storage offer = storageOffers[offerIndex];\r\n        require(msg.sender == offer.provider, \"Only the provider can initiate a return\");\r\n        require(!offer.isActive, \"Offer is still active\");\r\n        require(offer.buyer != address(0), \"No buyer to return funds to\");\r\n\r\n        //     (24 )\r\n        require(block.timestamp <= offer.purchaseTimestamp + 1 days, \"Return allowed only within one day\");\r\n\r\n        uint cost = offer.pricePerMBPerDay * offer.capacity;\r\n        require(providerBalances[msg.sender] >= cost, \"Insufficient balance for return\");\r\n\r\n        //   \r\n        address payable buyer = payable(offer.buyer);\r\n        providerBalances[msg.sender] -= cost;\r\n        buyer.transfer(cost);\r\n\r\n        //    \r\n        offer.isCancelled = true;\r\n        offer.isActive = false; //    (  )\r\n        offer.buyer = address(0);\r\n    }\r\n\r\n    //       \r\n    function uploadFile(\r\n            string memory cid,\r\n            string memory fileName,\r\n            uint size,\r\n            string memory encryptedAESKey,\r\n            string memory iv\r\n        ) public {\r\n            files.push(File(cid, fileName, size, msg.sender, encryptedAESKey, iv));\r\n        }\r\n\r\n\r\n    //      \r\n    function getUserFiles(address user) public view returns (File[] memory) {\r\n        uint fileCount = 0;\r\n        for (uint i = 0; i < files.length; i++) {\r\n            if (files[i].owner == user) {\r\n                fileCount++;\r\n            }\r\n        }\r\n\r\n        File[] memory userFiles = new File[](fileCount);\r\n        uint index = 0;\r\n        for (uint i = 0; i < files.length; i++) {\r\n            if (files[i].owner == user) {\r\n                userFiles[index] = files[i];\r\n                index++;\r\n            }\r\n        }\r\n        return userFiles;\r\n    }\r\n\r\n    //      \r\n    function getStorageOffersCount() public view returns (uint) {\r\n        return storageOffers.length;\r\n    }\r\n\r\n    //       \r\n    function getUserPurchasedOffers(address user) public view returns (uint[] memory) {\r\n        return userPurchasedOffers[user];\r\n    }\r\n\r\n    //      \r\n    function withdrawEarnings() public {\r\n        uint balance = providerBalances[msg.sender];\r\n        require(balance > 0, \"No funds to withdraw\");\r\n\r\n        providerBalances[msg.sender] = 0;\r\n        payable(msg.sender).transfer(balance);\r\n    }\r\n}\r\n",
  "sourcePath": "C:\\Users\\PC\\Desktop\\decentralized-storage-platform\\contracts\\StoragePlatform.sol",
  "compiler": {
    "name": "solc",
    "version": "0.8.0+commit.c7dfd78e.Emscripten.clang"
  },
  "schemaVersion": "3.4.16",
  "updatedAt": "2024-11-05T07:08:05.620Z",
  "networkType": "ethereum",
  "devdoc": {
    "kind": "dev",
    "methods": {},
    "version": 1
  },
  "userdoc": {
    "kind": "user",
    "methods": {},
    "version": 1
  }
}